:02000000B52F1A
:100F6A008301CB2F6E30C4004108C3004008C20081
:100F7A00430842040319C82F0130C2020030031C7F
:100F8A00C303C302BD2FC40BB92F08008316860101
:100F9A008701FE30831286006430C000C101B72782
:100FAA00FD3086006430C000C101B727FB308600DF
:100FBA006430C000C101B727F73086006430C00032
:100FCA00C101B727EF3086006430C000C101B727DE
:100FDA00DF3086006430C000C101B727BF30860009
:100FEA006430C000C101B7277F3086006430C0007A
:060FFA00C101B727CE2F54
:00000001FF
