:020000040800F2
:1000000000000220459504089902040889020408AA
:100010009D020408AD020408BD02040800000000AF
:10002000000000000000000000000000CD020408F5
:10003000CF02040800000000D1020408D502040821
:100040009195040809040408150404081D04040813
:1000500099030408919504089D030408A303040868
:10006000A9030408AF030408B5030408112D04080C
:10007000212D0408312D0408412D0408512D0408B8
:10008000612D0408712D04089195040891950408C8
:10009000D5040408DD04040891950408BB03040892
:1000A0003104040837040408490404084F04040810
:1000B000550404085B04040861040408F5040408FA
:1000C000FB040408010504080705040891950408C9
:1000D00091950408B1040408B7040408BD04040899
:1000E000DF0304080F040408210304088D04040836
:1000F00093040408AB040408A5040408812D040833
:1001000091950408B58404086904040891950408CD
:10011000C3040408C904040881040408870404080B
:10012000912D0408A12D0408B12D0408C12D040847
:10013000D12D04089195040891950408919504081F
:10014000E5040408ED040408919504081503040867
:10015000E12D0408F12D0408012E0408CF04040841
:1001600091950408919504089195040891950408C7
:1001700091950408919504089195040800000000E9
:10018000919504089195040801380A44914204D0DD
:1001900011F8013B00F8013FF8E770478369023925
:1001A000023B99423DBF8378C06A01FB03000020F7
:1001B000704700F10B010023DA0142EA530310F803
:1001C000012B52FA83F38842DBB2F5D1184670470F
:1001D00008B568B103685BB11A784AB1D9888288DA
:1001E000914205D1587802F023FB10F0010000D0B5
:1001F000092008BD03692DE9F0410D460931002BA6
:1002000033D042690024561E2E2716F8013F202BBA
:1002100004F1010419D0052B4ED0092C01D10F7027
:100220000131A3F1410EBEF1190F0CD8082C92F840
:100230000CE08CBF4FF0100C4FF0080C1CEA0E0FB6
:100240001CBF2033DBB20B7001310B2CDDD1D37A14
:100250002B72D3692B60547E137E43EA0423AB8058
:10026000D47D937D43EA0423EB8000240C70AE69B7
:100270003EB303690BB900241AE0EB69002BFAD0F6
:10028000028C4FF6FF739A42F5D0D0F81C80771E8F
:1002900038F8140060B100213EF0D0FD0028EAD00B
:1002A000EB69013B9C42E6D2013407F8010FEFE70E
:1002B00000233355BDE8F081092C4FF0E503C2D18E
:1002C000ADE7BDE8F081CA7E8B7E032843EA0223B6
:1002D00001BF487D0A7D42EA002243EA02431846F4
:1002E0007047F8B5056B00F13407044601232A4630
:1002F0003946407802F0DAFAA0B9636AE2692071FF
:10030000EB1A934201D30020F8BDE678012EFAD90A
:10031000E36960781D442A460123394602F0C6FA93
:10032000013EF3E70120F8BD03790BB1FFF7D9BF18
:1003300018467047F8B50446FFF7F6FF0546002853
:1003400052D12378032B47D16779012F44D104F18F
:10035000340601464FF4007230463BF010FD552341
:10036000412284F83232AA2384F8333284F83720C9
:10037000522384F81A22226984F8343084F8353004
:10038000612384F8363084F81B32C2F3072384F8E3
:100390001C2284F81D32130C120E84F81F22E2680E
:1003A00084F81E32C2F3072384F8202284F8213215
:1003B000130C120E84F82322226A84F8223272214E
:1003C000013284F8181284F8191222633B46314630
:1003D000607802F06BFA657100221146607802F0D5
:1003E00095FA051C18BF01252846F8BD036B8B4202
:1003F00070B506460D4611D0FFF796FF044670B95A
:100400002A46012306F13401707802F023FA00280D
:100410001CBF4FF0FF350124356300E00024204667
:1004200070BD0000002310B503714FF0FF3303636C
:100430000446FFF7DBFFC0B994F8332294F8323258
:1004400043EA02234AF65522934210D1D4F86A3087
:10045000084A23F07F4393420AD0D4F8860020F064
:100460007F40801A18BF012010BD032010BD02205C
:1004700010BD00BF464154002DE9FF410023036039
:1004800007460846154602F061F9061EC0F22481AF
:100490009B4B53F82640002C00F020813C602378D1
:1004A00083B1607802F0C4F9C1070BD4002D00F0CD
:1004B000178100F0040303F0FF00002B00F01C8103
:1004C0000A2019E18F4F002317F81600237060707F
:1004D00002F084F9C20700F105810DB14307EFD4A2
:1004E00000212046FFF79EFF012803D104F5FD718E
:1004F00000220FE0002840F0F78007EB46035D780C
:10050000002DF3D127E04DF822300132042A01F109
:10051000100105D011F8043C002BF4D00B68F2E771
:1005200007EB46004678374606B1771E5DF8275040
:1005300035B129462046FFF775FF36B910B90AE0F4
:100540003EB902200137032FF0D9032800F0CF80F5
:1005500008B10D20D0E094F8402094F83F3043EAF1
:100560000223B3F5007FF4D194F84A3094F844C0E4
:1005700094F84B0084F803C053EA00200CF1FF33D9
:1005800008BFA06DE061012BE3D894F84130A3705F
:10059000002BDED05A1E1A42DBD194F846E094F8C4
:1005A000452042EA0E2E1EF00F0FA4F808E0D0D12D
:1005B00094F8481094F8472094F8436052EA0122D6
:1005C00094F8421008BF626D51EA0621C1D000FBC9
:1005D0000CFC01EB1E176744BA42BAD3D21BB2FB24
:1005E000F3F3002BB5D040F6F572934203F1020607
:1005F00001EB05022F4410D94FF6F5718B4278D9E3
:10060000A66125626262E762BEF1000FA1D1236E8E
:10061000A3624FF00308B30018E04FF00108A66191
:1006200025626262E762BEF1000F92D0B8F1020F5C
:100630004FEA460318BF9B19624418BF06F0010633
:10064000A2621CBF06EB53034FF0010803F2FF1335
:10065000B0EB532FFFF47DAF4FF0FF332361E36026
:10066000B8F1030F4FF0800363712AD194F865202D
:1006700094F8643043EA0223012B22D1691C2046FE
:10068000FFF7B4FEE8B994F8332294F8323260717F
:1006900043EA02234AF65522934212D1626B1A4B67
:1006A0009A420ED103F1FF53D4F8182203F50053F8
:1006B00020339A4201BFD4F81C322361D4F820328F
:1006C000E360124A84F80080138801339BB2002053
:1006D0001380E38060610FE00B200DE00C200BE045
:1006E000284609E0032007E003287FF432AF012009
:1006F00002E04FF0020892E704B0BDE8F08100BFCD
:1007000060040020302C0608525261415E04002033
:100710000129F8B506460C465CD98369994259D23D
:100720000378022B29D0032B39D0012B52D101EBB6
:100730005105416A01EB5521FFF758FE10B14FF00A
:10074000FF30F8BD6F1C716AC5F30805354401EB35
:100750005721304695F83450FFF748FE0028EED177
:10076000C7F308073E44E30796F8340045EA002043
:100770004CBF0009C0F30B00F8BD416A01EB142126
:10078000FFF734FE0028DAD1640004F4FF74331953
:1007900093F8350093F8343043EA0020F8BD416AFD
:1007A00001EBD411FFF722FE0028C8D1A30003F407
:1007B000FE7433193433DA7898785B783444000463
:1007C00040EA026040EA032094F83430184320F0F5
:1007D0007040F8BD0120F8BD826870B50446012A5A
:1007E0000D46E18001D1022070BD036899698A42FB
:1007F000F9D252B91978032901D1996A21B9198915
:100800008D42F0D2986A15E00A469E783601B542CC
:10081000114620680CD3FFF77BFF431C024618D01B
:100820000128E0D923689B699842DCD2AD1BEEE732
:10083000FFF7B4FCE2600028D5D0236800EB151068
:10084000343305F00F0503EB451520616561002089
:1008500070BD012070BD01292DE9F04106460C460E
:10086000154672D9836999426FD20378022B3BD027
:10087000032B4AD0012B68D101EB5107416A01EBF0
:100880005721FFF7B3FD002860D107F10108C7F336
:100890000807374414F001041FBF97F8343003F001
:1008A0000F022B0103F0F00314BF1343EBB287F8E0
:1008B0003430716A0123337101EB58213046FFF760
:1008C00095FD002842D1C8F30803334414B1C5F3A1
:1008D000071506E093F83420C5F3032522F00F0234
:1008E000154383F834502CE0416A01EB1421FFF7E3
:1008F0007DFD58BB640004F4FF74331983F8345051
:10090000C5F3072583F835501BE0416A01EBD4118C
:10091000FFF76CFDD0B9A40004F4FE74331993F80A
:100920003720120602F070421543C5F3072283F800
:10093000345083F835202A0C2D0E83F8362083F8A6
:10094000375001233371BDE8F0810220BDE8F0810A
:10095000F8B505460F4631B9C66896B183699E421F
:1009600028BF01260EE0FFF7D3FE01283FD9441C23
:1009700002D14FF0FF30F8BDAB69984238D33E4604
:1009800000E001263446AB6901349C4204D3012EB9
:1009900001D80020F8BD022421462846FFF7B8FE02
:1009A00030B1411CE5D0012821D0B442EBD1F0E7B1
:1009B0006FF0704221462846FFF74DFFA8B957B99E
:1009C0002B69EC605A1C0ED0013B2B616B7943F014
:1009D00001036B7107E0224639462846FFF73BFFCB
:1009E0000028EDD001E02046F8BD0128C1D001204B
:1009F000F8BD2DE9F843C6880136B3B204460F4668
:100A000013B90420BDE8F8830369002BF9D016F070
:100A10000F0859D1C16801330361006819B903890E
:100A20009E42EED250E08378013B13EA16134BD17D
:100A3000FFF76EFE0128054602D80220BDE8F883C4
:100A4000421C02D10120BDE8F883206883699D42E1
:100A500034D3002FD5D0E168FFF77AFF0546002890
:100A60003BD00128E9D0431CECD02068FFF75CFCA8
:100A700007460028E6D120684FF40072394634302A
:100A80003BF07DF9226829461046FFF787FB4FF0BF
:100A90000109106323689A7897420CD283F8049076
:100AA0002068FFF741FC0028CCD12268136B01338A
:100AB00013630137EEE71A6BD71B1F63E560294606
:100AC0002068FFF76BFB20612368E680343303EB7B
:100AD000481363610020BDE8F8830720BDE8F88370
:100AE00070B50E4600210446FFF776FEA8B905460C
:100AF00021692068FFF77AFC78B963691B78E52BD8
:100B000000D01BB90135B54201D170BD05460121A8
:100B10002046FFF76EFF0028EAD0042808BF072010
:100B200070BD00002DE9F84F4FF0FF083F4F04461D
:100B30000E46454604202169002969D02068FFF748
:100B400055FC002865D160690378002B68D0C27A13
:100B5000E52B02F03F0253D022F02001A1F1080C56
:100B6000DCF1000141EB0C01B14249D10F2A3DD12A
:100B70005A0605D5E188427B218403F0BF0302E0D9
:100B80009D423DD1424690F80D80904537D1027884
:100B9000D4F81CE002F03F02013A0D214A434FF025
:100BA000010C00254FF6FF7A15F8079000EB0901BC
:100BB00091F801B010F8091041EA0B21BCF1000FC7
:100BC00006D0FE2A1CD82EF812108C46013201E005
:100BD000514515D101350D2DE6D1017849061CD5B9
:100BE000FE2A0DD800212EF8121016E01DB9FFF7CD
:100BF000E0FA804516D04FF6FF73238412E090464A
:100C0000FF2500212046FFF7F4FE002893D000E0E6
:100C100040B100232361BDE8F88F013BDDB2F0E76E
:100C20000420F6E70020BDE8F88F00BF76D705085E
:100C3000F8B5018CC6884FF6FF73994208BF31465C
:100C40000546FFF7C9FD0446E8B9E5272969286884
:100C5000FFF7CCFB044698B92022014668693BF0B7
:100C60008EF86B691F702B6801221A71EB889E4207
:100C700009D921462846FFF7BCFE04460028E5D0E6
:100C8000042C08BF02242046F8BD012970B5044693
:100C90000D4601D8022070BD83699942FAD2A3693A
:100CA0009D4205D229462046FFF732FD064608B987
:100CB000002070BD0128EDD0411C10D00022294633
:100CC0002046FFF7C8FD58B923695A1C05D00133E7
:100CD0002361637943F0010363713546DFE7012047
:100CE00070BD00002DE9F74F4FF6FF794FF0FF0878
:100CF0000546A0F82090444629692868FFF776FB4E
:100D0000002879D16E693378002B6ED0E52B60D046
:100D1000F17A080701F03F0202D50F2A59D101E00C
:100D20000F2A47D1D5F81CB0BBF1000F56D0590699
:100D300005D503F0BF04EB88727B2B8402E0A3424D
:100D40004BD1424696F80D80904545D1377827F033
:100D500040077B1E0D275F4301204FF0000A284B00
:100D60001AF80310721892F801E0725C42EA0E223F
:100D700088B110463EF080F8FE2F01902DD87A1CE5
:100D80003BF8170000923EF077F80199814224D198
:100D9000009A174601E04A451FD10AF1010ABAF14B
:100DA0000D0FDCD133785A0623D510B33BF817303A
:100DB000FBB112E024B93046FFF7FBF9404516D0ED
:100DC000A969CB7ADB0704D40B2230463AF0F9FF4D
:100DD00090B1A5F8209000E09046FF24002128461D
:100DE000FFF707FE002887D006E0042004E0204635
:100DF00002E0013CE4B2F1E703B0BDE8F08F00BFD0
:100E000076D705082DE9F04F8469C66987B00C22B2
:100E1000214605460DEB0200FFF7B6F99DF81720B5
:100E200002F0200101F0FF03002940F0CD80D2073D
:100E300061D5E3720127EB610B2203A92046FFF77E
:100E4000A3F9052F01D83B4615E0B01E3B4630F80C
:100E5000022F82B1102102F0010E0EEB430313F4B6
:100E6000803F1CBF83F4883383F0210301394FEAAC
:100E70005202F0D1EBE7072203F00F0000F130013E
:100E8000392988BF00F13701013A01A810441B0934
:100E90004170F1D106A911447E2001F8140C9A4248
:100EA00004D0E15C202901D00133F8E72344072A6C
:100EB0009BBF06A98918202111F8141C03F8011BF7
:100EC000A3EB040198BF01320729F0D9002128467D
:100ED000FFF782FC40B92846FFF704FF20B901372D
:100EE000642FA9D107208BE0042840F089809DF869
:100EF0001730E372EE619DF817309B070AD5002486
:100F000036F814300BB10134FAE719340D23B4FB71
:100F1000F3F400E0012421462846FFF7E1FD002814
:100F20006ED1013C52D0E9882846091BFFF754FCDA
:100F3000002865D1A869DFF8D080FFF73AF90F27BC
:100F4000064629692868FFF751FA002858D16B69CD
:100F5000D5F81C905E73E1B24FF00D0E4A1E0EFBE9
:100F600002F2DF7218739876D87686464FF6FF7ACB
:100F700050451EF808C018BF39F8120003F80C00DD
:100F80000EF1010E9C4418BF01324FEA102B0028CD
:100F900008BF5046BEF10D0F8CF801B0E8D14FF6F6
:100FA000FF7E704502D039F812200AB941F04001A5
:100FB00019702B6801221A7100212846FFF719FDCC
:100FC000F0B9013CBDD101E0062019E0296928688B
:100FD000FFF70CFA044690B92022214668693AF0DE
:100FE000CEFE0B22A9696869FFF7CEF8AB696A6982
:100FF000DB7A03F0180313732B6801221A71204661
:1010000007B0BDE8F08F00BF76D705082DE9F74F90
:101010000B782F2B0546884601D05C2B03D108F1B5
:101020000108002301E003685B69AB6098F80030B9
:101030001F2B48D800212846FFF7CEFB00236B6109
:1010400031E15C2B3FD0D5F81C9004F1FF3AA9F1B7
:10105000020700261AF8010F1F2806F101083AD8E6
:101060002028A04434BF04240024012E4ED1B9F816
:1010700000302E2B50D1002329F81630AA699E4249
:101080008CBF2E212021D15401330B2BF6D1AB691B
:1010900044F02004DC7200212846FFF79DFB10B9C4
:1010A0002846FFF71FFEAB69DB7A002842D00428F0
:1010B00040F0F98013F0200F03F004033ED000222B
:1010C000AA606A61C3BB98F800302F2B444608F130
:1010D0000108B6D1F7E72F28C2D05C28C0D0B8F5F8
:1010E000807F00F0DA8001213DF0A8FE002800F0AA
:1010F000D4807F2806D86D4A12F8013F13B1984278
:10110000FAD1CAE027F8020F4646A3E7022E03D120
:10111000B9F802302E2BAAD009EB460304E033F8CD
:10112000022D202A03D1013E002EF8D1B5E02E2A4F
:10113000F9D014E05A0706D50020B4E0002B14BF04
:1011400004200520AFE06969CB7ADB0605D52B6862
:101150001878FFF7B8F8A860B5E70520A3E0AA69FA
:101160004FF02030002129F8161009EB460350609B
:101170001060C2F8070039F81120202A01D101318E
:10118000F9E72E2AFBD021B144F0030401E0013E2F
:1011900003D033F8022D2E2AF9D100234FF0080A8C
:1011A0001F4639F8110001F1010B002848D0202812
:1011B00003D02E2805D15E4508D044F003045946DB
:1011C000EFE7534504D25E4516D168E0534566D338
:1011D000BAF10B0F04D144F003044FF00B0A2FE0D7
:1011E0005E4502D044F003042AD3BF00FFB2B346E9
:1011F0004FF00B0A0823E2E77F280CD90021019366
:101200003DF01CFE019B18B1294A104410F8800CD7
:1012100044F0020428B1274A12F8011F29B188427C
:10122000FAD144F003045F2006E0A0F1410189B245
:10123000192928D847F00207A969C8540133BEE725
:10124000AB691A78E52A04BF05221A70BAF1080FB3
:1012500004BFBF00FFB207F00C030C2B03D007F054
:101260000302032A01D144F00204A10709D407F0C4
:101270000307012F08BF44F01004042B08BF44F0FB
:101280000804AB6906E7A0F1610189B219299EBF84
:10129000203847F0010780B2CEE7062003E0BAF11C
:1012A0000B0FA2D197E703B0BDE8F08FA1D60508D8
:1012B000F6D60508AAD605081FB5019004A8009126
:1012C00040F8041D144601F041FA011E14DB0D4BD9
:1012D00053F8210008B100220270019808B10022E1
:1012E000027043F8210050B1012C07D10022694659
:1012F00001A8FFF7C1F802E00B2000E0002004B0D5
:1013000010BD00BF600400202DE9F0438FB01446EB
:1013100001910646002800F087800023036002F058
:101320001E0201A905A8FFF7A7F8002840F0838056
:1013300002AB0B930199414B0C9305A8FFF766FE96
:101340000A9D10B9002D08BF062014F01C0F04F0F0
:101350001F0743D050B104286DD105A8FFF752FDF7
:10136000002868D147F008070A9D05E0EB7A13F0E2
:10137000110F5FD1630759D43C073BD547F0C0F844
:10138000C0F307230024A873EB73DDF81480EC721C
:10139000030C000E2B742C776C77AC77EC776874A9
:1013A00098F800002946FEF78EFF0123AC76EC7614
:1013B0002C756C7588F804300446C8B10146404667
:1013C000D8F83090FFF761FC002834D10598013C33
:1013D000C4604946FFF70AF840B12CE058BBEB7AED
:1013E000D80625D4A10701D5DA0723D43B0701D5B8
:1013F00047F02007DDF814800024D8F83030F3617E
:101400003562B771F47198F800002946FEF75BFF6A
:101410003061EB69F360B8F80630B460B461C6F8C7
:101420000080B380204606E0092004E0082002E0A6
:10143000042000E007200FB0BDE8F0835E0200202A
:101440002DE9F84F98460023C8F8003005460F46AE
:101450001446FEF7BDFE002840F08680E87900289B
:1014600040F08280AB79DA077DD5EB68A868181A5E
:10147000844228BF0446002C72D0AB68C3F3080234
:10148000002A4AD1286890F8029009F1FF3909EA48
:10149000532919F0FF0910D10BB9286902E06969D5
:1014A000FFF736F9012801D8022002E0431C03D1DE
:1014B0000120E871BDE8F88F6861D5F800B069696E
:1014C0005846FEF76BFE0028EED0660A00EB090ACC
:1014D00021D09BF802309BF8010009EB06029A42EA
:1014E00088BFC9EB030633465246394601F0B2F9CC
:1014F0000028DDD129680B795BB1086BCAEB0000CD
:10150000864206D94FF40072343107EB4020FEF7D3
:101510003BFE760219E0C5F818A0AE68A9692868F4
:10152000C6F30806C6F50076A64228BF2646FEF793
:101530005DFF0028BCD1A9682B68C1F308011944DC
:10154000324634313846FEF71FFEAB683344AB6099
:10155000D8F8003033443744C8F80030A41B8AE779
:101560002046BDE8F88F0720BDE8F88F2DE9F84F39
:101570009B460023CBF80030044689461746FEF709
:1015800027FE002840F0AE80E079002840F0AA80D5
:10159000A3799A0740F1A580A368FB424DD3A368C5
:1015A000E268934240F29680E36093E0A368C3F35D
:1015B0000802002A71D120688678013E06EA532687
:1015C00016F0FF063CD02068A369026B9A4251D006
:1015D000D4F800A061695046FEF7E0FD00283BD03A
:1015E0007D0A00EB06084AD09AF802309AF801000A
:1015F00072199A4288BF9D1B2B464246494601F00C
:1016000055F9064660BB2068016BC8EB01018D42AD
:1016100008D94FF4007209EB41213430FEF7B4FDD4
:1016200023681E716D02A3682B44A360DBF80030B1
:101630002B44A944CBF800307F1B002FB6D1AEE776
:1016400013B9216931B900E06169FFF781F90146F9
:101650000028A4D0012901D1022002E04B1C03D1B3
:101660000120E071BDE8F88F23696161002BAAD1E8
:101670002161A8E7FEF758FE0028A9D0F0E7A2688C
:10168000E3689A4207D35046FEF74EFE0028E7D1A2
:101690002368C3F83080C4F81880A568A169206861
:1016A000C5F30805C5F50075BD4228BF3D46FEF7E8
:1016B0009DFE0028D4D1A0682368C0F30800184418
:1016C0002A4649463430FEF75FFD23684FF0010299
:1016D0001A71A8E7A37943F02003A3710020BDE8A5
:1016E000F88F0720BDE8F88F70B50546FEF770FD4E
:1016F0000646002837D1AB799B0634D5E9692868BE
:10170000FEF774FE064670BB2C6AE37A43F02003B2
:10171000E372EB682377AB891B0A6377EB89A377C6
:10172000EB7BE3772B69A376C3F307221B0C2375AE
:101730001B0AE276637546F0E3FEC0F30723A0754B
:10174000E375030C000E23766076A674E674AB791D
:1017500023F02003AB712B6801221A712868BDE8C1
:101760007040FEF7E7BD304670BD10B50446FFF788
:10177000BBFF20B92046FEF72BFD00B9206010BD4D
:1017800007B502AB43F8040D184600F0DFFF002850
:10179000A9BF034B0B201870002003B05DF804FBB9
:1017A000701E002030B58FB00EA9002241F8340D14
:1017B00005A8FEF761FE0446E8B902AB0B93019958
:1017C0000E4B0C9305A8FFF721FC044670B90A994B
:1017D00019B9059B079A5A610DE0CB7ADB0609D54A
:1017E000059D2878FEF76FFD686104E0042808BFB6
:1017F000052400E0052420460FB030BD5E02002025
:101800002DE9F04198B018AB002243F85C0D0E466C
:10181000027019460FA8FEF72FFE0446002840F07C
:10182000898004AB1593454B16930F9B5B6911930D
:101830003546DDF84480B8F1000F5ED001210FA8D5
:10184000FEF7CAFF0146002850D10FA8FFF76AF93A
:10185000074600284CD10F9B14991878FEF733FDEA
:10186000394611900FA8FEF7B7FF002842D100219A
:101870000FA8FFF757F90746002856D10F9B149978
:101880001878FEF720FD80450ED1019B0D9307A926
:101890000FA80E95FEF7AEFC0DF125030393019BF7
:1018A0001A784AB1039307E039460FA8FFF7A1F869
:1018B0000028DCD0044639E003990A46531A12F88E
:1018C000010B0028FAD1DA1C954215D31A46013AC9
:1018D000511C019805D003998F5CA918C91A475467
:1018E000F5E7DB431D442F234355A2E7044604E0FC
:1018F000044602E0044600E01124019B03931CB15E
:10190000039B00221A7015E00D4B03A9187800F014
:1019100051FFB542F4D0039B5A1C0392019A525DC9
:101920001A700135AE42F6D8EAE70446042C08BF27
:101930000224E2E7204618B0BDE8F0815E020020F4
:10194000701E002070B504460D46FEF741FC0028CD
:1019500070D1E07900286DD1E368AB4204D2A2795E
:1019600012F0020F08BF1D460022A368A260002DDE
:1019700057D02068867876026BB1013B6A1EB3FBB4
:10198000F6F1B2FBF6F28A4205D372421340A3602D
:10199000ED1A61690FE0216961B9FEF7D9FF0128ED
:1019A000014601D1022002E0013002D10120E071A4
:1019B00070BD21616161B1B900202AE0A37920687E
:1019C0009A0713D5FEF7C4FF014698B14B1CEDD022
:1019D0000129E7D923689B699942E3D2A368616131
:1019E0003344A360AD1BB542E8D804E0FEF790FE97
:1019F0000146EBE73546A3682B44A360C5F3080313
:101A0000002BD9D02068FEF7C9FB0028CAD000EB14
:101A10005520A568C5F308031BB1A369984218BFF8
:101A2000A061E368AB423FBFA379E56043F02003C8
:101A3000A371002070BD000010B586B0044601916E
:101A400038B3002201A902A8FEF716FDF0B9029BE7
:101A5000236003ABA361134BE36101992046FFF7B9
:101A6000D5FAD0B9616939B1CB7ADB060DD5029BC5
:101A70001878FEF728FCA060029BDB88A380002179
:101A80002046FEF7A9FE042805D105200023236087
:101A900006E0092004E018B1F8E70428F5D0F5E7DE
:101AA00006B010BD5E02002010B50446FEF790FBA4
:101AB00000B9206010BD00007FB505460E46FEF758
:101AC00087FB044600BB26B901462846FEF784FE84
:101AD00019E001ABAB610E4BEB6101462846FFF705
:101AE00021F8042801D12C6100E060B93146284674
:101AF000FEF780FB00212846FEF77BFF042802D179
:101B000000232B6100E00446204604B070BD00BFF6
:101B10005E02002030B58FB00EAB0D4643F8340D99
:101B20000022194605A8FEF7A7FC044690B902ABAF
:101B30000B930199094B0C9305A8FFF767FA04462C
:101B400040B90A9B2BB12DB1294605A8FEF752FBDF
:101B500000E0062420460FB030BD00BF5E0200202A
:101B60002DE9F34702AB144643F8040D88460022E2
:101B700019462046FEF780FC0546002851D124680E
:101B8000A7692369BA1E934202D8C8F8003048E01A
:101B900094F80090B9F1010F10D10227064639469A
:101BA0002046FEF7B5FD431C2FD001282FD000B9E9
:101BB0000136A36901379F42F1D32BE0616A0346E6
:101BC0000246064652B9204601F1010AFEF70EFC14
:101BD000F8B904F1340351464FF40072B9F1020F21
:101BE00009D193F801E0187850EA0E2008BF0136B9
:101BF0000233023A06E0186820F0704000B901365E
:101C00000433043A013FDDD104E0012502E002255E
:101C100000E005466379266143F001036371C8F86B
:101C20000060284602B0BDE8F087000070B598B0AB
:101C300018A9012241F85C0D06A8FEF71DFC00283A
:101C400044D103AB0C930199214B0D9306A8FFF7E8
:101C5000DDF900283AD10C9BDB7A990605D40B9963
:101C600019B1CE7AF20720D401E006202EE0069DBD
:101C70002878FEF728FB0446C8B1F30617D56B6930
:101C80009C4212D006A90FA82422FEF77DFA022159
:101C90000FA81194FEF7A0FDC0B901460FA8FEF7EA
:101CA00041FF10B1042802D010E007200EE006A882
:101CB000FEF7BEFF50B91CB90698FEF73BFB05E0E6
:101CC00021460698FEF7E1FF0028F5D018B070BD58
:101CD0005E0200202DE9F04F93B012AC44F8340DB1
:101CE00046F00EFC21460646012209A8FEF7C4FB79
:101CF0000446002840F0D28006AB0F930599694B4B
:101D0000109309A8FFF782F90446B0B1042840F007
:101D1000C5800F9BDB7A03F0200303F0FF0173B94A
:101D20000998FEF715FE054658B1012D0BD1022486
:101D300029460998FEF7A9FFB0E00824AEE0062482
:101D4000ACE00724F4E76B1C00F083800998FEF7F1
:101D5000EBFA04460028EBD1099F29463846FEF7E6
:101D60001DFA07F13408214604904FF400724046F2
:101D70003AF005F8C6F3074300934FF020329DF880
:101D800000307A63C8F80420C8F8072087F84C3080
:101D9000330E01939DF8043087F84D30EBB2029377
:101DA0009DF8083087F84E301022C5F307235FFAFC
:101DB00086FAC6F3072B039325FA02F69DF80C303A
:101DC00087F83F202E245FFA86F9360A87F84F30CD
:101DD0002022414607F1540087F8344087F84AA092
:101DE00087F84BB087F8489087F84960FEF7CCF940
:101DF000099987F8554008780B9A049B032803D16A
:101E0000886A824208BF002287F86E20C2F307204A
:101E1000120C87F86820120A87F86F0087F869208B
:101E20008F78C7B109985A1C03634FF001030371FF
:101E30000492FEF756FA044600287FF479AF014673
:101E40004FF400724046013F39F099FFFFB2049B06
:101E5000E7E701246CE709A8FEF7D4FF0446002851
:101E60007FF466AF0E9B099883F816A01022DA72F1
:101E70009DF800201A769DF804205A769DF80820D7
:101E80009A769DF80C2083F817B0DA7683F81490D0
:101E90005E7501230371FEF74DFA0446204613B028
:101EA000BDE8F08F5E02002030B59FB001220190A6
:101EB00000910CA801A9FEF7DFFA002879D10C9B4C
:101EC000159303AB129301993B4B13930CA8FFF7A7
:101ED0009DF800286DD1129BDB7A9A065ED4119989
:101EE000002959D015220B3106A8FEF74DF92422FE
:101EF0000CA915A8FEF748F9684600F027FC002851
:101F000046DB009915A8FFF781F8002842D0042885
:101F10004FD115A8FEF776FF00284AD11A9D13224B
:101F20000DF11A0105F10D00FEF72EF99DF818309C
:101F30000C9C43F02003EB7201232371EB7ADB0648
:101F40002ED5179B0E9A9A422AD029462078FEF762
:101F5000BAF901462046FEF721F9014640B3204672
:101F6000FEF744FA28BB0C9A92F855302E2B17D165
:101F7000179B82F86E30C3F307211B0C82F8683080
:101F80001B0A82F86930012382F86F10137107E091
:101F90000B200EE008200CE004200AE0062008E0F8
:101FA0000CA8FEF745FE20B90C98FEF7C3F900E037
:101FB00002201FB030BD00BF5E02002070B58EB0A1
:101FC0000EA9012241F8340D05A8FEF755FA0028A4
:101FD00040F09D80019B8DF808001A782F2A04BFDD
:101FE00001330193019A11468B1A11F8010B002855
:101FF000FAD113449342A3EB020508D1002105A8AE
:102000000791FEF7E9FB002840F081801BE013F800
:10201000011D2029EED000242246019B0121985C5D
:10202000561C3CF00BFF3CF027FF00213CF006FF64
:1020300008B906206BE0374A12F8013F002B40D068
:102040009842F9D1F5E7012105A8FEF76BFD60B9CB
:102050009DF808302BB10B2202A90A98FEF794F8DC
:102060001CE00A9BE5221A7025E004284FD19DF858
:10207000080000284BD0012105A8FEF731FD0028FB
:1020800045D1014620220A9839F079FE0B2202A997
:102090000A98FEF779F80A9B0822DA7246F030FABD
:1020A0000A9B98750A9BC0F30722DA750A9B020CFB
:1020B000000E1A765876059801230371FEF73AF957
:1020C00025E0FF2820D9092CB3D80EAB2344020AFF
:1020D00003F8302C01340EAA631C1444AE4204F8F9
:1020E000300C324601D21C4697E702AA1344202046
:1020F000991A0A2902D803F8010BF9E79DF808306C
:10210000E52B7FF47BAF94E70A2CE4D991E70EB07E
:1021100070BD00BFB1D605082DE9F04F8BB0012985
:1021200007908A46154600F2E68207A800F00EFBEB
:102130000028C0F2E282BC4B53F82040002C00F093
:10214000DE8200232370B94B13F8106003EB4003C9
:10215000304693F801B000F041FBC30700F1D18293
:1021600000F0040000F0FF02002840F0CC82BBF138
:10217000000F1FD0012304F13401304600F06AFB48
:1021800008B10120D8E294F8332294F8323243EABD
:1021900002234AF65522934201D00E20CCE204EBF2
:1021A0000B1303F5F1731A79002AF6D0D3F80880DF
:1021B000DB6812E009AA0121304600F0A7FB0028E5
:1021C000DFD1099B2F2BDCD9BAF1000F14BF4FF0E0
:1021D00000084FF03F08C8EB030309936B1E2B4226
:1021E000099A02D1002D40F09082914D00234FF4C6
:1021F000FA61B2FBF1F135F81300814201D20133EB
:10220000F9E78C4931F81350B5F5007F01D36D0A19
:1022100000E01DB1812D28BF802500E0012540F69A
:10222000F571B2FBF5F38B4240F274824FF6F57113
:102230008B4240F27D829B0003F207235B0A0193ED
:1022400000230493032720230293029B0499434411
:102250000393019B03EB0109039B9944C8EB05031E
:102260004B449A4299D308AA0321304600F04EFB12
:1022700020B9089B013BB3F5004F01D3012308931C
:10228000089A531E4B4452421340C9EB0303032FD9
:10229000089306D1029A1A440292039A1A440392AE
:1022A00002E0019A1A440192DDF82490029B019AFF
:1022B000C3EB09039B1A049A022FA3EB0203B3FB9F
:1022C000F5F3059306D1059A40F6F5739A427FF629
:1022D00064AF10E0032F07D1059A4FF6F5739A42C9
:1022E0007FF65BAF0C230CE0012F04D1B9F5803FE2
:1022F00038BF012303E0B9F5803F38BF042328BF6E
:102300000623BBF1000F08D004EB0B1B00228BF857
:10231000E63104F13401012346E0BAF1000F4CD15B
:1023200004F1340B4FF4007251465846069339F0CD
:1023300026FD069B84F8F631FE2308EB090284F89B
:10234000F73143F6C163B2FBF3F2930843F03F0366
:1023500084F8F8313F2384F8FA31C9F3072384F86D
:10236000FF314FEA194384F800325523012184F8E4
:10237000FE9184F832324FEA1969AA2384F8F311E6
:1023800084F8F411089284F8F92184F8333284F83F
:10239000F5A10B4684F8FBA184F8FCA184F8FDA10B
:1023A00084F8019252465946304600F07FFA0028E0
:1023B0007FF4E7AE4FF0F80A01E04FF0F00A04F1C5
:1023C00034094FF400720021484639F0D8FC0B2242
:1023D00019494846FDF7D8FE02220023032F84F84E
:1023E00040209DF8082084F83F3084F8453084F878
:1023F000422018BF0223029A84F84630099B84F8D1
:102400004150C2F3072284F84320B3F5803F4FF0D8
:10241000010284F844209AB210D2120A84F847309C
:1024200084F8482015E000BF60040020302C060826
:102430008CD6050884D70508C2D60508120A84F888
:10244000543084F855201A0C1B0E84F8562084F85A
:1024500057303F2384F84C30FF2384F84E30C8F3C4
:10246000072384F851304FEA18434FF0000B84F8EB
:1024700052304FEA186384F8533084F849A084F846
:102480004DB084F84FB084F8508046F039F8032FEF
:10249000089083B239D11B0A84F87830030C84F891
:1024A00079309DF8043084F85830019B84F8770027
:1024B000C3F3072384F85930019B84F861B01B0CE7
:1024C00084F85A30019B84F862B01B0E84F85B30AC
:1024D000022384F86030012384F86430062384F8F2
:1024E00066308023000E84F87430292384F87A0043
:1024F00084F863B084F865B084F867B084F8763007
:1025000013228F4904F17B001DE01B0A84F85C3024
:10251000030C84F85D309DF8043084F84A30019B48
:1025200084F85B00C3F3072384F84B308023000E4C
:1025300084F85830834984F85E00292384F85A309F
:10254000132204F15F00FDF71FFE552384F8323299
:10255000AA2384F83332424601234946304600F02C
:10256000A5F900287FF40DAE032F06D1012308F151
:1025700006024946304600F099F94FF400720021F6
:10258000484639F0FCFB032F13D06F4B012F18BFC7
:102590006FF0FF0343EA0A03FF224FEA136A08932E
:1025A00084F8343084F8352084F8362084F837A055
:1025B0001CE06AF0FF03089384F83430FF2384F8AA
:1025C000353084F8363084F8373084F8383084F881
:1025D000393084F83A3084F83B3084F83C3084F861
:1025E0003D3084F83E300F2384F83F30039B039A3C
:1025F000494603F1010A3046012300F057F901462C
:1026000000287FF4BEAD4FF40072484639F0B7FBA6
:1026100001230893089B019A9A420FD9012352463D
:10262000494630460AF1010B00F040F900287FF4DA
:10263000A8AD089B01330893DA46EBE7049B032F10
:1026400018BF1D465246554401234946304602F103
:10265000010B00F02BF900287FF493AD5D455A463D
:10266000F2D1032F3ED1522384F8343084F8353030
:10267000612384F8363084F81B32059B84F82102EC
:10268000013B412284F8372084F81A22C3F3072241
:1026900084F81C3284F81D221A0C1B0E84F81F3299
:1026A000022384F82032552384F83232AA2372217F
:1026B00084F83332012384F8181284F8191284F84C
:1026C0001E2284F8220208EB030284F82302494602
:1026D000304600F0EBF8012308F107024946304686
:1026E00000F0E4F800221146304600F00FF9003007
:1026F00018BF012020E013201EE00B201CE00C205E
:102700001AE0032018E00A2016E0B5F5007FBFF4B8
:102710007EAD7FE503EB430301335B080333012701
:1027200003F2FF135B0A01932023049301238BE53B
:1027300002335B000227F3E70BB0BDE8F08F00BF68
:10274000CED60508E2D6050800FFFF002DE9F041CE
:10275000056806460DB32B782F2B03D0124B187843
:10276000BDE8F081DFF84880002458F8043F8BB1C1
:102770001F8959683A46284639F054FB50B9EB5D39
:102780002F2B05EB070201D132600AE013B9074B8A
:10279000336006E00134042CE7D14FF0FF30BDE890
:1027A000F0812046BDE8F081701E0020E63005086B
:1027B0001C1D002038B5084B03EB80000C46D0F8F8
:1027C000745120682A89696839F099FA2B8922683E
:1027D0001344236038BD00BFAC1B0020032810B594
:1027E00001D9012010BD104B03EB8000D0F87441DB
:1027F000002CF6D063895B0705D4E369002B0CBF7E
:102800000420002010BD032363630123A36304F1AC
:102810002C020021022028F010FC044B9842ECD03E
:102820004308EAD0DDE700BFAC1B0020B8970508DD
:1028300003280BD8064B03EB8000D0F874312BB182
:10284000DB69002B0CBF042000207047012070477B
:10285000AC1B00200328F8B50F46164622D8124CB0
:1028600004EB8004D4F87451E5B16C8914F00104D0
:1028700008D06C691A4631463846A047003018BF68
:102880000120F8BD560046F0010658026E612AF09C
:102890004BFD05F10C02A8612146022028F0CDFB7A
:1028A0002046F8BD0420F8BDAC1B00200328F8B575
:1028B0000F46164624D8144C04EB8004D4F8745107
:1028C000F5B1EA69F2B16C8914F0010408D06C6AC0
:1028D0001A4631463846A047003018BF0120F8BDDF
:1028E000760046F0010658026E622AF01DFD05F1E1
:1028F0001C02A8622146022028F09FFB2046F8BD5A
:102900000420F8BD0220F8BDAC1B0020032810B540
:1029100014464ED8284B03EB8000D0F87421002ACF
:1029200047D053895B0725D5032942D8DFE801F05A
:10293000020A123D072353630123936300212C32C3
:10294000022022E0092353630123936300212C32E8
:10295000022020E00B2353630123936300212C32D8
:10296000022028F06AFB154B83421AD029F0D4FECE
:1029700020801CE003291CD8DFE801F0020A1317AD
:10298000D06AB8B100212C32084628F056FB0EE080
:1029900000213432084628F050FB29F0BDFE2060AB
:1029A00005E04FF40073238001E001232360002041
:1029B00010BD042010BD00BFAC1B0020B897050857
:1029C00008B543683BB10430FEF7CFFE18B1034BA6
:1029D000185C29F049FA024808BD00BF34D1050847
:1029E000B89705080868FFF7EBBF000008B504308A
:1029F000FEF77AFE18B1034B185C29F035FA02484D
:102A000008BD00BF34D10508B897050837B51C4686
:102A1000043001AB1546FEF7A9FD10B1054B1B5C58
:102A200003E00198854203D01C2323604FF0FF3060
:102A300003B030BD34D1050813B51C46043001ABDA
:102A4000FEF7FEFC28B1044B1B5C23604FF0FF3007
:102A500000E0019802B010BD34D105082DE9F04125
:102A60000746486888462FF06DFB254A0138002448
:102A700010F8013F0BB3722B13D008D8612B19D07B
:102A8000622B0CD02B2BF3D144F00304F0E7772B0F
:102A90000AD0782B0BD0742B08BF1746E8E7194FE4
:102AA000E6E744F00104E3E744F00A04E0E744F019
:102AB0000604DDE744F01204DAE728201DF0F4FAFA
:102AC0000646054646F8047BD8F800002FF03AFB8E
:102AD000E2B201463046FEF717FC074630B1284601
:102AE0001DF00AFB084BD85D29F0BEF9E30603D5BB
:102AF00029693046FEF726FF2846BDE8F08100BF71
:102B000064D10508F8D0050834D1050830B587B080
:102B1000054603AC084611461A46064B009301943D
:102B2000032329F0B5FA21462846FFF797FF07B09F
:102B300030BD00BFE0D0050870B5054608460C461C
:102B400029F01CFD2346024602492846BDE8704094
:102B500001F048B850D10508022938B50546144699
:102B600015D15268012A04D0022A06D05AB9216828
:102B700006E022683AB15F220AE00169236819443D
:102B8000281DFEF7DFFEEB682360002038BD16220B
:102B90001A604FF0FF3038BD10B586B003AC064B5D
:102BA00000930194032329F011FA21460348FFF70B
:102BB00055FF06B010BD00BFE0D0050864D1050880
:102BC00010B50446FEF7D1FD2046BDE810401DF0CB
:102BD00093BA838CC28C9A4213B504460CD3132B40
:102BE00011D901AB142200F12801FEF729FC019B49
:102BF0004BB1A3840023E384E38C5A1CE2841C447D
:102C000094F8280001E04FF0FF3002B010BD000042
:102C100073B506463C200C461DF043FA0546C8B184
:102C200021460122FEF770FB044610B10B4B185CE5
:102C300011E001AB142205F128012846FEF700FC43
:102C4000019BAB84064BEC847360064B3560B3602C
:102C5000204600E00C2002B070BD00BF34D1050852
:102C6000D32B0008C12B0008F0B593B0234B07937A
:102C70000E464FF48073014609A80893FEF7DCFE68
:102C8000014618B11E4B185C29F0EEF82DF085F9BD
:102C90001C4F054601A909A8FEF70EFF40BB9DF891
:102CA0000D302BB3039B23F07F4222F0FF02B2F5DD
:102CB000385FEFD023F0FF03BB42EBD0079C2378B3
:102CC0000BB90DF10D0420463EB139F08CF800220D
:102CD000014620462FF044F905E039F084F801461A
:102CE00020462FF0C9F9014628462CF0DBFED1E73B
:102CF00009A8FEF7D9FE284613B0F0BD5D010020FB
:102D000034D10508002E2E0010B588B00024694685
:102D100006940794FEF7FEFE38B99DF8083013F0CC
:102D2000100F14BF0120022000E0204608B010BDA3
:102D30002DE9F74F06299DF830500DD8012903D908
:102D40003F230370013000E009B100230370012923
:102D500094BF00200120FAE110EE104A002C05DAA1
:102D60002D25441C0570B1EE400A04E015B1441C49
:102D7000057000E0044610EE105A05F0FF46B6F16B
:102D8000FF4F01901AD102F02002D2B2C5F316050E
:102D900082F04E03E11C3DB982F0490582F0460203
:102DA00025706370A27005E0DBB282F041022370EF
:102DB0006270A37000230B70081AC8E1002B42F068
:102DC000200EB8BF06230139261ABEF1670FA1EB0A
:102DD000060104D1002B08BF012375B11AE0CDB95B
:102DE000BEF1660F09D15D1CA942D8BF8B1E00271A
:102DF0005E1C6621BC463D46DCE05D1DA942D8BF95
:102E00008B1FBEF1650F71464FF0000640F0C58084
:102E10002B27C3E0B5F17E5F6CD2DFEDCE7ADFF811
:102E20003CC3DFF83C93B4EEE70AF1EE10FA4FF042
:102E30000006ACBF4FF031084FF030082027354670
:102E4000BCEC017AB4EEC07AF1EE10FAC4BF09EB23
:102E5000060A9AED007A06F10406C4BFED1920EEC9
:102E6000070A182E4FEA6707EAD110EE106AB6F18A
:102E70007E5F10D2B4EEE70AF1EE10FA06DB002D09
:102E800014BF2D272B27B7EE000A05E0F2EE047AD7
:102E900020EE270A01352D27BEF1660F04D0BEF1C2
:102EA000670F1ED1042D1CDCBEF1670F04BF05F1B6
:102EB000FF369B195E1CB142D8BF8B1E84F8008080
:102EC000002B00F030812E2161701E46023430212B
:102ED000013D66D01EB104F8011B013EF8E73746FC
:102EE00060E04E1F9E4200F32481BEF1670F5DD06B
:102EF0008B1F5CE00026DFF868C2DFF860822027C5
:102F00003546FCEC017AF4EEC07AF1EE10FA9CBF83
:102F100008EB0609D9ED007A06F104069CBFED190D
:102F200020EE270A182E4FEA6707EAD1F2EE047A5C
:102F3000B4EEE70AF1EE10FAA2BFDFED877A0135B1
:102F400020EE270ABEF1660F0AD18D420BDAEE1889
:102F50000136B1421CDC491B8B1E19D54B1E17E0F4
:102F6000BEF1650F08D14E1F9E4226DC00268B1F46
:102F70002B27B44665211DE0BEF1670F22D11E1D2F
:102F8000B14200DC4B1F9D4280F2C980691C5B1A74
:102F9000EE180136AC46002706E03746B446354603
:102FA00008E02F464FF0FF3C662103E033467146B0
:102FB0000026B44623EAE37308E02B274FF0000C09
:102FC000652105E0002671462B27B446652901D10D
:102FD0005E1C06E0672904D113B90126334600E0E0
:102FE0001E464FF000084FF02E0AB2EE047A464516
:102FF0001ADDFDEEC07AE04517EE90BA0BF1300B0A
:1030000004F1010984F800B004D11BB104F10209F4
:1030100084F801A0F8EEE77A08F1010830EE670ABB
:103020004C4620EE070AE2E7BEF1660F02D1012D01
:103030005BDC83E0F1EE047AB4EEE70AF1EE10FA1D
:1030400044DB661E4FF03009B04618F801C9BCF1E8
:103050002E0F01D14646F7E7ACF1300ABAF1090F5D
:1030600001D9701C0CE0BCF1390F05D00CF1010C3A
:1030700086F800C0304603E0B04288F80190E9D1FC
:103080000678302E19D190F801C0BCF12E0F09D16D
:10309000662907D02D2F80F800C046700CBF05F1BF
:1030A000FF35013501342646B04204D216F801CC72
:1030B00006F801C9F8E73126067010EE100AB0F1E3
:1030C0007E5F03D2662908BF03F1FF33BEF1670FAD
:1030D0000BD1002B09DD23461C46013B14F8011CD3
:1030E0003029F9D02E2908BF1C469FB102F02002DA
:1030F0000A2142F0450295FBF1F3227001FB1355C2
:1031000093FBF1F201FB1232303230356770A2705E
:10311000E570043400232370019BE01A17E0672157
:1031200000262B2745E701341F464FF0FF3C662160
:1031300002E071464FF0000C002647E7F1EE047AFA
:10314000B4EEE70AF1EE10FABFF67BAFCDE703B0BD
:10315000BDE8F08FF8FF7F3FCDCCCC3D6C79050802
:103160005479050808B5044631B1054B03608A6BF4
:10317000096800232BF090F920461CF065FF00BF82
:103180000C8D05082DE9F04F85B09846019247183F
:103190000AB905460CE0023A222AFAD93C493D48D0
:1031A00028F064FC207801351EF0DAF800285CD0A5
:1031B000BD422C46F6D34FF00009391B204601AA28
:1031C00027F009FC0444A3460025BB45DA460ED28D
:1031D0001BF8016B30461EF0D7F8019B28B1A6F111
:1031E0002F029A4201DC303E0DE0102B04D0B9F1E1
:1031F000000F14D06D4212E046F02006A6F16103E4
:10320000052BF4D8573E0199284634F0A7FEC0B9E3
:10321000019B03FB056595EA4503D6D511E06D00DA
:1032200045F00105A24518D05446BC42234606D2BB
:10323000187801341EF094F80028F6D10DE022D061
:103240000BE004A8019B40F8044D4A46391B2CF0C2
:1032500063FADDF80CA00546E4E70F49019A0D4832
:103260002BF056F84146FFF77DFF23782B2B02D138
:103270002C468146A1E72D2B0ABF2C464FF00009B2
:103280004FF0010999E7284605B0BDE8F08F00BF6F
:10329000847905084C870508A77905082DE9F84FBA
:1032A0002DED028B0C9F1646984600EB010A044652
:1032B0005445254606D2287801341EF051F80028DE
:1032C000F6D155E04FF000099FED7D7A9FED7D8AA4
:1032D00000232C469E461A46F0EE476AB2EE046A78
:1032E0004FF00A0B54454ED22078A0F1300CBCF1BF
:1032F000090F04F1010115D8022A02D10BFB03C307
:1033000034E007EE90CAF8EEE77A012A1BBFE8EE38
:10331000067A0022A7EE278AB0EE678A08BF27EE5A
:10332000267A23E012B92E2802D11EE0022A13D0F9
:1033300040F02002652A0FD18A4509D962782B2AEC
:1033400001D1A11C04E02D2A04BFA11C4FF0010EE5
:10335000514579D0022209E0B6B140F020006A2838
:103360000ABF0C46002601260EE001220C46B9E7F2
:103370002B782B2B6FD125468146544514D300233F
:103380009FED508A9E460026BEF1000F00D05B42A2
:1033900007EE903AB2EE040AF8EEE70A38F0E2FDE2
:1033A00020EE088A18E081462B7843F02003692B31
:1033B00016D06E2B88D1AB1C9A4514D96B7843F08C
:1033C0002003612B0FD1AB7843F020036E2B0AD181
:1033D0009FED3D8AEC1C0026B9F1000F0CD009E0EE
:1033E000AB1C9A453DD8B9F1000F2DD09FED358A21
:1033F0002C460026B1EE488AAC4225D054452346DF
:1034000006D2187801341DF0ABFF0028F6D11BE07E
:103410001AD126B1F0EE480A9FED2A0A06E0B8F16B
:10342000000F09D0DFED270AB0EE480ABDEC028B91
:10343000BDE8F84F2AF038B9B0EE480ABDEC028B6F
:10344000BDE8F84F2BF040B9204921482AF0E6FFAB
:103450003946FFF787FE2D2BA5D125464FF00109F0
:103460008BE76B7843F020036E2BBCD1AB7843F035
:103470002003662BB7D1EB1D9A4505F103041AD939
:10348000EB7843F02003692B15D12B7943F020030F
:103490006E2B10D16B7943F02003692B0BD1AB79E4
:1034A00043F02003742B06D1EB7943F02003792BF2
:1034B00001D105F1080400269FED068A8CE700BFC4
:1034C000CDCCCC3D000000000000C07FCF790508C6
:1034D0004C8705080000807F084611463DF0D0BCAF
:1034E00070B5054608460E4638F07DFC044620B10E
:1034F00002466B68286831469847204670BD000038
:103500002DE9F74F0D9C01919146A41A9DF83020AA
:1035100012F0DF0F064609D0302A0CAA244F0EBF46
:103520004FF0100817464FF0010802E0214F4FF00E
:10353000100813F0800205D0022394FBF3F3E51A80
:103540001C4602E013F0010511D1002C12DDA24649
:10355000D045C346A8BFD346736830685A4639463B
:10356000CBEB0A0A9847BAF1000FF1DC03E02546DD
:10357000144600E00024B9F1000F05D073680199EA
:1035800030684A4698474C44002D0DDD2C44A84530
:10359000C146A8BFA946736830684A463946C9EB98
:1035A00005059847002DF2DC204603B0BDE8F08FFA
:1035B000DE5F0508EF5F05082DE9F04389B080461E
:1035C000119E9DF84890139F0AB900220DE0002932
:1035D00004DA2D228DF80F2049420EE0B00701D504
:1035E0002B2202E07207F0D520228DF80F2021B99E
:1035F00008AC302304F8013D14E0109A08ACA2F1A5
:103600000A050DF1100EB1FBF3F003FB1012092AAD
:10361000CCBF5219303204F8012D7445014601D057
:103620000028F0D116F040039DF80F500DD0ADB139
:1036300001220192CDF8009033460DF10F01404672
:10364000FFF75EFF013F054608E03DB104AA944242
:1036500084BF04F8015C04F1FF341D4608AA0197F9
:10366000CDF800903346121B21464046FFF748FF35
:10367000284409B0BDE8F0832DE9F04F91B011F076
:10368000010F824689461A9D9DF86CB01C9EDDF89C
:10369000748010D111F0030F03D109687F48814273
:1036A00009D048460593049229F036F8059B049A00
:1036B000400040F0010915F0810106D1BBF1300F47
:1036C00003D14645B8BF464688464846059304920E
:1036D0002BF03BFF0028049A059B08A80BDDAF07E1
:1036E00001D52B2102E06C0705D520218DF8201093
:1036F0000DF1210400E00446E9061ED5022A05D199
:103700002146302701F8027B5F1C14E0082A0AD109
:10371000AF054FF03001217045BF03F10E0161701C
:103720000134023409E0102A07D12146302701F87C
:10373000027B03F1170767700C46002115F0200F7C
:103740002170A4EB000404940CAF0CBF0C462C2495
:10375000B8F1010F0997C8BF45F0400510270A9737
:10376000DBB215F040070B918DF81F100394029304
:1037700014D000238DE80C000AA94B460BAA09A817
:103780002BF0B0FD03782D2B814618D18DF81F301A
:103790000B9B013B00F101090B9310E0019000929B
:1037A0004B460BAA0AA909A82BF09CFDB8F1010F02
:1037B00081466DDD0B9C4445B8BF44460CE0B8F132
:1037C000010F64DD0B9C9DF81F304445B8BF444693
:1037D00003B10134049B1C44A64209DD05F001033A
:1037E000002BA6EB040416BF27460027002401E0A7
:1037F00000273C4625F001054CB12023009300230F
:1038000001941A4626495046FFF77AFE04464FF0C7
:10381000300B69061BD59DF81F3053B101220023E0
:10382000019200930DF11F015046FFF769FE013E22
:103830000444049B5BB10123019300230093049A89
:1038400008A95046FFF75CFE049B0444F61AB8F141
:10385000010FC8BF46460196CDF800B02B460B9A23
:1038600049465046FFF74CFE04444FB120230093D5
:10387000002301971A460A495046FFF741FE0444C7
:1038800009980CAB984205D01CF036FC02E00027EA
:103890003C46BEE7204611B0BDE8F08FB092050867
:1038A0009AD905082DE9F04316468BB0B207804639
:1038B0009946129F05D416F0040F0CBF0023202355
:1038C00000E02B2300930A46139B202102A8FFF758
:1038D0002FFAF30520EAE0750DD56B1C1F2B0ADCCF
:1038E0000AAA1544252205F8202C0AAA1A44002108
:1038F00002F8201C1D4616F0400412D09DF8083036
:103900002F2B4FF000030ED8012202A90192009341
:103910004046FFF7F5FD013F0446013D0DF1090169
:1039200003E002A901E002A91C460197CDF800902E
:1039300033462A464046FFF7E3FD20440BB0BDE87E
:10394000F08300002DE9F04F814689B01446002530
:103950000E46334613F8012B5AB9B1420DD2771AED
:10396000D9F80430D9F800003A4698473D4431462A
:1039700003E0252AF1D01E46EBE70B78002B00F080
:103980002681013120234FF000080F780E464A1C93
:10399000002F4BD02D2F02D148F0010817E02B2F1C
:1039A00002D148F0020812E0202F02D148F00408AA
:1039B0000DE0212F02D148F0080808E0302F03D095
:1039C00000274FF00A0E04E048F040083B4611463D
:1039D000DBE70E4611F8012BA2F13000092803D8CD
:1039E0000EFB0727303FF4E72E2A1FD172782A2AD0
:1039F00004D0084600224FF00A0C07E02268002A93
:103A000006F1020604F1040113DB0DE00178A1F1D7
:103A1000300EBEF1090F064600F1010003D80CFB81
:103A20000212303AF2E721460C4604E04FF0FF3232
:103A300001E00C46002231786C2908BF013696F867
:103A400000B0BBF1000F00F0C280BBF1640F00F0CA
:103A500081801AD8BBF1500F00F0878005D8ABF1F8
:103A60004501022940F29080A5E0BBF1620F22D00F
:103A700032D8BBF1580F40F09E80029304F1040A43
:103A80000397CDF80480412376E0BBF1710F2ED06F
:103A900006D8BBF1670F77D9BBF1700F65D08AE00C
:103AA000BBF1750F4CD0BBF1780F5ED0BBF1730F3B
:103AB00040F081802DE0226804F1040A8DE888003E
:103AC000434612B10422444901E0444905224846D4
:103AD000FFF716FD054477E008A9226801F8042DD8
:103AE00004F1040A8DE8880001224346EFE707A9A4
:103AF0002068059204931DF026FA059A049B01465E
:103B0000501C8DE8880004F1040A08BF079A434658
:103B1000DDE704F1040A246864B1511C05D1204694
:103B2000049338F060F9049B02468DE88800214632
:103B30004346CCE78DE88800062243462849C6E77D
:103B400002936123009304F1040A0397CDF80480E3
:103B50000A2313E002936123009304F1040A0397FC
:103B6000CDF804800A23012209E0029304F1040A3B
:103B70000397CDF80480612300931023002221686D
:103B80004846FFF719FDA5E7073424F00704D4E9F8
:103B900000010592049338F0A1F9059A019200EE14
:103BA000100A0097049B42465946484604F1080A09
:103BB000FFF778FE8EE7D9F80430D9F8000001222B
:103BC000314698470135A246711C5446C0E6284646
:103BD00009B0BDE8F08F00BFCC5F0508D15F0508D4
:103BE000D75F05080EB403B503AA52F8041B01926F
:103BF000FFF7A8FE02B05DF804EB03B070470000C9
:020000040802F0
:10000000C460056146618761C0F81C80C0F820901B
:10001000C0F824A0C0F828B0C0F82CD0C0F808E080
:1000200000F002B800200000024B9A68026098605D
:1000300000207047AC1B0020024B9A6812689A603F
:10004000704700BFAC1B00200E4B9C6806461D4647
:100050000CB91FF0D5FE23686660AB602046C4680B
:10006000056946698769D0F81C80D0F82090D0F8DF
:1000700024A0D0F828B0D0F82CD0D0F808E0012087
:100080007047FEE7AC1B002010B50021044600F0CD
:1000900009FB28B920461CB1BDE810400BF0BEBEDC
:1000A00010BD002100F0FEBA10B50121044600F099
:1000B000F9FA28B920461CB1BDE810400BF0AEBEDD
:1000C00010BD10B50446FFF7DFFF28B920461CB16C
:1000D000BDE810400BF0A2BE10BD10B501220C46C9
:1000E00000F03AFC28B920461CB1BDE810400BF0E6
:1000F00095BE10BD00F030BC00F0A6BB3548D0F86E
:10010000B0322DE9F0474FF0030E00F5D8760446E3
:1001100000F52C77B34247D91D1FD0F898C153F88A
:10012000041CC0F8B052002201328B184FEA930829
:1001300003F003031CF808805B0048FA03F303F0A4
:100140000303022BF0D0D0F8A43112014FEA920C35
:1001500003EB0113002A3AD0043B53F8042F110794
:100160001BD1D0F8A4118A4217D3D4F8A851AA42BF
:1001700013D2521A48BF0F3212114FEA9208D0F828
:10018000989102F0030119F80850490045FA01FA64
:100190000AF0030ABAF1010F08D0BCF1010CDCD15E
:1001A000D0F8B032B342B7D8BDE8F0870EFA01F10B
:1001B000294309F80810D4F8B012B94201F1040536
:1001C00036BFC4F8B052C4F8ACA10A60E5E72B46CC
:1001D000A0E700BFAC1B0020F0B5234ED6F8A43139
:1001E000834214D8D6F8A821904210D2C01A48BF32
:1001F0000F300011D6F898311B4D84081A5D00F0BD
:10020000030359000A4102F00302012A00D0F0BDA5
:10021000C108D5F8A0E100F0070C1EF8017002FA41
:100220000CF227EA02020EF80120D5F8C02294420F
:1002300038BFC5F8C042D6F89851295D03275B0046
:1002400007FA03F321EA030129550130D6F8985142
:10025000840800F00303295D5A0041FA02F202F01B
:100260000302022AEBD0F0BDAC1B0020F8B521F050
:100270000F031C1A164A174DE400A2FB0424640A5B
:100280000119A3EB84172246C5F8A0110021C5F877
:10029000A831C5F89C41C5F89801C5F8A4711BF0B8
:1002A0006EFDA2000732D2080021D5F8A0011BF094
:1002B00066FD002301214FF0FF32A5F8B612C5F804
:1002C000BC22C5F8C032A5F8B432C5F8B832F8BDC2
:1002D000F32C23FAAC1B0020034AB2F8B4320133EA
:1002E000A2F8B432704700BFAC1B0020034AB2F83A
:1002F000B432013BA2F8B432704700BFAC1B0020FF
:10030000034BB3F8B402003018BF0120704700BFA0
:10031000AC1B00202DE9F843264CB4F8B43200227F
:1003200004F5D8710133A4F8B432C4F8B012C4F89B
:10033000B822C4F8AC21A4F1040904F5C07526461E
:1003400004F52C78032759F8043F1A071AD1D4F87A
:10035000A421934216D3D6F8A8118B4212D29B1A2D
:1003600048BF0F331B114FEA930ED4F898C103F026
:1003700003021CF80E00520040FA02F101F00301E2
:10038000012905D0FFF7BAFE4D45DCD1BDE8F88361
:1003900007FA02F202430CF80E20D6F8B0224245CA
:1003A00002F1040036BFC6F8B002C6F8AC11136003
:1003B000E8E700BFAC1B0020002942D02DE9F04740
:1003C000204E0D46A0F10409374606F52C7800248E
:1003D00059F8043F1A0719D1D6F8A4118B4215D346
:1003E000D7F8A821934211D25B1A48BF0F331B11D3
:1003F0009808D6F898E103F003021EF800C05200F6
:100400004CFA02F101F00301012906D00134FFF793
:1004100075FEA542DCD1BDE8F0874FF0030A0AFA69
:1004200002F242EA0C020EF80020D6F8B022424551
:1004300002F1040036BFC6F8B002C6F8AC11136072
:10044000E4E77047AC1B00202DE9F04F554ED6F87D
:100450009C01D6F8AC3183B0800006F5D8753746DC
:1004600043B30024C6F8B052C6F8AC4118B945E011
:10047000013484421AD2A208D6F8981104F003037A
:100480008A5C5B0042FA03F303F00303032BEFD112
:10049000D7F8B0321A1DC7F8B0221C60FFF72EFE45
:1004A000D7F89C01013480008442E4D3D6F8AC3103
:1004B000002BD6D110B39C46DFF8E8801D464FF0E4
:1004C000030A06E0032B60D0012B22D001358542C0
:1004D00014D2AF08D6F8982105F00304D15D64006A
:1004E00041FA04F303F00303022B02EB070EE9D1F8
:1004F000BCF1000F3DD101358542EAD3B6F8B432E4
:100500000022013BA6F8B432C6F8C02203B0BDE811
:10051000F08F4FEAD50BD8F8A02112F80BC005F0E8
:1005200007094CFA09F0C3075A4422D52901D8F823
:10053000A4014358084483B16A4640F221210AF0DD
:10054000E9FD009A22B100216A4608460AF075FDCD
:10055000D6F8A02112F80BC05A44012303FA09F37C
:100560002CEA030C82F800C0D6F89831D95D03EB71
:10057000070E0AFA04F421EA04018EF80010D6F8F6
:100580009C014FF0010C8000A0E7022303FA04F461
:1005900021EA0401D155D8F89C014FF0000C984095
:1005A00094E700BFAC1B00203D4BD3F8A411D3F857
:1005B000A8212DE9F047D3F89C61D3F89871521A1D
:1005C000002302601D46B60043608360C360036180
:1005D000436183619C469E461C461A4699461946CD
:1005E000984617F809904B0049FA03F303F0030308
:1005F000012B30D027D3022B02D1013545600134C5
:100600000132B2420ED04FEA920902F0030117F80C
:1006100009304FEA410A43FA0AF313F0030301D009
:10062000012BDED1012C1AD0022C2BD081698C42F7
:1006300088BF8461B2421BD0012B27D04FEA9209B8
:1006400002F00301CDE70CF1010CC0F808C00EF177
:10065000010E0024D4E7013545601C46D0E701694E
:100660000131016181698C4288BF8461B242E3D16A
:10067000C6450ED9B242C0F80CE00AD0F0464FF0A1
:10068000000EDBE7416901314161CFE7F045F6D269
:10069000F0E72D014FEA0C1345608360BDE8F08759
:1006A000AC1B00200F302DE9F84F070900F0C68081
:1006B000644EB6F8B432002B40F0C080B6F8B632C3
:1006C000002B0D460CBF4FF001094FF0000949D136
:1006D000DFF870810024D6F8C022D6F89C0182424F
:1006E00038D2D8F898E10EEB02011AE00134BC428E
:1006F00041D213F00C0F1ED10134BC4280F0958022
:1007000013F0300F1CD10134BC4280F0918013F003
:10071000C00F1AD10134BC4280F08D800132824278
:1007200018D211F8013B13F0030FDFD013F00C0FB8
:100730004FF00004E0D013F0300F4FF00004E2D08F
:1007400013F0C00F4FF00004E4D0013282424FF0AA
:100750000004E6D3B9F1000F70D125F041FB4FF052
:100760000109B8E7D6F8B822D6F8BC329A42AFD31E
:1007700025F036FBACE79300012CA3EB040003F15A
:10078000010C00F1010804BF4FEA9C02C6F8C02228
:100790004FEA980208F003011EF802404FEA4109AF
:1007A000012101FA09F10230214383420EF80210BF
:1007B00028BF4FF0020E0FD38408D6F8982100F01E
:1007C000030112F8049049000EFA01F1013041EAE8
:1007D000090183421155EFD2D6F8A4A1D6F8B83258
:1007E000DFF860904FEA0814C8EB0C020AEB040B28
:1007F0001F44120158460021C6F8B8721BF0BFFA18
:1008000085B10023D9F8A0014AF804304FEAD80195
:100810000122435C08F0070802FA08F848EA0308D6
:1008200000F801805846BDE8F88F9200531CA3E7FA
:100830009200931CA0E79200D31C9DE70020BDE826
:10084000F88F00BFAC1B0020F0B5264CB4F8B432D2
:10085000002B45D1030743D1D4F8A43198423FD3AC
:10086000D4F8A82190423BD2C01A48BF0F300011E3
:10087000D4F898311B4E85085A5D00F003035900E7
:100880000A4102F00302012A2AD1C108D6F8A0E1E8
:1008900000F0070C1EF8017002FA0CF227EA0202BF
:1008A0000EF80120D6F8C022954238BFC6F8C052D3
:1008B000D4F89861715D03275B0007FA03F321EA1E
:1008C000030171550130D4F89861850800F00303E5
:1008D000715D5A0041FA02F202F00302022AEBD0E3
:1008E000F0BD00BFAC1B002010F00F031ED1194A51
:1008F000D2F8A41188421AD310B4D2F8A841A04269
:1009000010D2401A48BF0F300111D2F89841880820
:1009100001F00302205C520040FA02F202F00302EE
:10092000012A06D018465DF8044B7047002318468C
:100930007047002001300B189A0803F00303A25CF3
:100940005B0042FA03F303F00303022BF2D003012E
:10095000E8E700BFAC1B00202DE9F0470E4601463A
:10096000002800F0C1800446002E65D003076AD13C
:10097000DFF884E1DEF8A431984264D3DEF8A811F0
:10098000884260D2C31A48BF0F331B119908DEF8A2
:1009900098515948695C03F003077F0041FA07F753
:1009A00007F00307012F4ED1B0F8B41200294AD145
:1009B000D0F89C0103F1010C4FEA800A06F10F0800
:1009C000E2454FEA1818894612D94FEA9C000CF00C
:1009D0000301285C490040FA01F101F003010229FA
:1009E00034D029B909F1010909EB070188452ED84E
:1009F000B8451ED035D298441F4441464FF0030CF1
:100A000001E0DEF898518E0801F00303A85D5B0059
:100A10000CFA03F3013120EA0303B942AB55F0D1DC
:100A2000DEF8C03234494FEA98029A4238BFC1F822
:100A3000C0222046BDE8F0872F4BB3F8B43213B97B
:100A400010F00F0408D00020BDE8F08701370CF14A
:100A5000010CE245B9D8CBE7FFF7BEFB2046BDE865
:100A6000F087B944C8451FD8D91943448B4210D9DF
:100A70004FF0020C01E0DEF898518E0801F00302FD
:100A8000A85D52000CFA02F2013102438B42AA55D2
:100A9000F1D1C7EB0802120104EB071000211BF093
:100AA0006EF92046BDE8F087D908DEF8A001124DA6
:100AB000415C03F0070341FA03F303F00101002A4C
:100AC000C1D03046FFF7EEFD06460028BBD03A0104
:100AD00021461BF014F9B5F8B43253B92046FFF79C
:100AE0007BFB3046BDE8F0873046BDE8F047FFF7B6
:100AF000D9BD3046BDE8F087AC1B002010B58AB0E8
:100B000003A80B4CFFF750FD0599049B039A009135
:100B100020460849E3F766F806A80DC80999019030
:100B2000009120460449E3F75DF80AB010BD00BF0C
:100B3000C45F0508D01B0508F41B05082DE9F0412A
:100B4000544F5549D7F8A4215448E3F74BF8D7F848
:100B50009C11890018BF00251FD181E005F0030614
:100B600076004FEA9508D7F898314A4A13F80830CA
:100B700043FA06F606F00306022E6FD0032E6BD062
:100B8000012E44D02E2246494448E3F72BF8D7F8EB
:100B90009C1101358900A94262D9A806DED18D4297
:100BA0006CD2D7F898014FEA950805F0030610F8C3
:100BB0000830760033419A0721D12C4604E0825C4C
:100BC00042FA03F39B0708D1013404F003038C427B
:100BD0004FEA94024FEA4303F1D3621B7F2A0ED9F6
:100BE000920930492D48E2F7FDFFD7F89C3124F0F7
:100BF0003F05B5EB830F33D24FEA950800262A4A0A
:100C00002A4926482B011A40E2F7ECFFABE7D2F85D
:100C1000A411274A2B01CB58934229D0254A93424D
:100C200028D0254A93422FD0244A93421ED0244AEA
:100C300093421BD0234A93421ED0234A93421BD097
:100C4000224A934222D0224A934221D0214A9342FF
:100C500014BF68224D2296E76D2294E73D2292E769
:100C60001D490E48BDE8F041E2F73ABC53228AE73D
:100C7000542288E74C2286E7412284E705F00306E8
:100C800076004FEA9508BAE744227CE746227AE7E5
:100C9000422278E7AC1B00203C1C0508C45F050815
:100CA000801C05085C1C0508F0FF0F00781C050877
:100CB0009CA5050884930508A8840508B8A2050822
:100CC00074A2050808820508CC810508948E0508E1
:100CD00050900508EC940508581C0508074B5B6903
:100CE0004BB15A68824204D8801A043053F820006D
:100CF00070471B68F4E71846704700BFAC1B002024
:100D000070B5144C636906469868DB68834216D355
:100D10000230C000FFF7C5F9054620B9636998683D
:100D200040000BF07BF863692B605968DA689B68B8
:100D30005B00AB600A4400236A60EB606561636935
:100D4000DA68501C0432D86043F822605B68013BCB
:100D5000184470BDAC1B0020014441F20553884289
:100D600005D210F8012B03EB43135340F7E798B279
:100D7000002808BF01207047034B044A5A61002233
:100D8000C3F88421704700BFAC1B0020401D05083C
:100D90002DE9F84F82468946FFF7DEFF134B5C6969
:100DA000834604B3E66804F1100707EB86063D4668
:100DB000B54216D2A84658F8040B03889B450ED1BD
:100DC000837899450BD14A46514603301AF0F9FF12
:100DD00028B96368E81B03EBA000BDE8F88F45461F
:100DE000E6E72468DDE72046BDE8F88FAC1B00206D
:100DF0002DE9F04780460E46FFF7CAFF024600285D
:100E00005BD12F4CD4F88401351DD0B1D4F88C318E
:100E1000D4F888112B448B4213D92944FFF76AF97F
:100E2000074648B90246D4F88C11D4F88401FFF77C
:100E300061F9C4F8847104E0D4F888312B44C4F813
:100E40008831D4F88431CBB97F2D8CBF2F468027D1
:100E50003846FFF726F9C4F8840150B92846FFF751
:100E600020F9174BC3F8840110B928460AF0D6FFC1
:100E70002F460023C4F88871C4F88C31D4F88C91C3
:100E8000D4F884A131464D444046C4F88C51FFF754
:100E900063FF0AEB09070AF80900000A7870BE70C0
:100EA00032464146F81C3E441AF029FF0023F370F5
:100EB0003846BDE8F047FFF723BFBDE8F08700BF25
:100EC000AC1B002010B504461AF08DFF01462046E9
:100ED000BDE81040FFF78CBF38B5054604300C461E
:100EE000FFF7D2F8206085702068033038BDF8B570
:100EF0008578C71C044629463846FFF749FF064651
:100F000068B929463846FFF727FF25442070000AB4
:100F10006070EE702046BDE8F840FFF7F1BE204655
:100F2000FFF7EAF83046F8BD08B5FFF7D7FE0088AE
:100F300008BD08B5FFF7D2FE807808BD08B5FFF7F9
:100F4000CDFE033008BD08B5FFF7C8FE83780B60FF
:100F5000033008BD2DE9F8431D46002303600B60F4
:100F600013602B60174BDFF860905C69074688467A
:100F700016460CB34C451FD03B6801333B60D8F894
:100F80000020E3681344C8F80030E36804F110025D
:100F900002EB83018A4207D252F8043B9878336807
:100FA000043303443360F5E72046FFF79DFC2B68CC
:100FB000246818442860DCE72A68336813442B60EF
:100FC000BDE8F883AC1B0020401D0508F8B50C4BAC
:100FD0000C4F5C6994B1BC4210D0E36804F1100579
:100FE00005EB8306B54207D255F8042B064907489E
:100FF0000332E2F7F7FDF5E72468EBE7F8BD00BF41
:10100000AC1B0020401D0508482F0508C45F0508DB
:1010100038B5446803682144994205460DD9037BDD
:10102000DB070CD401F1100424F007040834214636
:101030008068FFF752F82C60A860012038BD0020BE
:1010400038BD70B50E46114605461446FFF7E0FF61
:1010500038B92B7BDB070ED595E818009C420AD2E5
:101060001C1B6B68A8682246184431461AF06FFEB4
:101070006B681C446C6070BD70B546688E42354626
:1010800028BF0D4601210446FFF7C2FF58B1A368EF
:10109000681C59191844721B1AF059FE6368A0683D
:1010A00001336360284470BD38B50446002500292B
:1010B00014BF0846012020606560FEF7E5FF237B32
:1010C000A06065F30003237338BD38B505460C46B0
:1010D0000131FFF7E9FF6C6038BD00234360037BFB
:1010E000016043F0010382600373704738B5144612
:1010F0000546FFF7D9FF024B2560636038BD00BF8E
:1011000043100208037BDB0710B5044602D4806855
:10111000FEF7F2FF0023A36010BD38B5054610208E
:10112000FEF7B2FF29460446FFF7BEFF204638BD52
:1011300010B5044650B1037BDB0702D48068FEF78C
:10114000DBFF2046BDE81040FEF7D6BF10BD38B526
:10115000037BDB0704460D460AD4016880682944F6
:10116000FEF7BBFF2368A0601D442560184438BD0E
:10117000002038BD38B504460D46FFF749FF20B1C1
:101180006368A0681D446560184438BD90E80C0091
:101190009A4210B5044605D0A26863680021D15474
:1011A000A06810BD0121FFF7D2FF0028F4D110BDC7
:1011B00010B50C460121FFF7DDFF00B1047010BD32
:1011C0007F2910B50C4606D80121FFF7D3FF002870
:1011D0003FD0047010BDB1F5006F0DD20221FFF7B2
:1011E000C9FFB0B3A30904F03F0463F03F0364F008
:1011F0007F040370447010BDB1F5803F12D203210B
:10120000FFF7B8FF28B3230B63F01F030370C4F389
:10121000851304F03F0463F07F0364F07F044370A0
:10122000847010BD0421FFF7A5FF90B1A30C63F0FB
:101230000F030370C4F3053363F07F034370C4F3FB
:10124000851304F03F0463F07F0364F07F04837030
:10125000C47010BD38B5054608460C461AF0C3FDEB
:10126000214602462846BDE83840FFF7EABE10B5E1
:101270001446FFF701FF00B1047010BD10B514460D
:10128000FFF7FAFE00B1047010BD43688B4234BF13
:1012900000235B1A4360704738B5154642688A429E
:1012A00004460B460ED929448A4201D8436038BD12
:1012B0008068D21A521B014418441AF048FD626833
:1012C000521B626038BD000007B5044B00906846B1
:1012D0000193E2F737FB03B05DF804FB431002080B
:1012E00003781A0613D503F07F034022134203D07C
:1012F00023EA02035208F9E710F8012F02F0C001B7
:10130000802904D102F03F0242EA8313F4E7184631
:101310007047421C10460132037803F0C003802B53
:10132000F8D070470023814207D911F8012D02F04F
:10133000C002802A18BF0133F5E718467047014400
:101340000346002099421A4608D9127802F0C002DA
:10135000802A03F1010318BF0130F3E77047000052
:101360007F289DBF024B185CC0F3400000207047EF
:10137000006005087F289DBF024B185CC0F3C000C9
:1013800000207047006005087F289DBF024B185C55
:10139000C0F3800000207047006005087F289DBFD3
:1013A000024B185CC0F380100020704700600508F5
:1013B0007F2809D8064B1B5C13F00C0F06D1A0F157
:1013C0005F03584258417047002070470120704722
:1013D000006005087F289DBF024B185CC0F3001019
:1013E00000207047006005087F289DBF024B185CF5
:1013F000C0F34010002070470060050808B50246A1
:10140000FFF7E8FF10B102F1200008BD104608BD4B
:1014100008B50246FFF7E8FF10B1A2F1200008BDB1
:10142000104608BD3038092884BF20F02000073856
:10143000704770B51C09944214D2121B01EB440191
:10144000154603F00F030C6831F8026B012D08BF3D
:101450003446DC40A4B2013D20F8024BF3D11CB964
:10146000501E70BD002070BD104670BDF0B5059FC8
:101470000024D21B2546BC420AD031F814E033F8D0
:1014800014607644354420F814502D0C0134F2E7F2
:1014900064000619023C2144374614463CB131F839
:1014A000023F1D4427F8025B013C2D0CF6E706EBDA
:1014B00042031DB1012126F812100233181A401000
:1014C000F0BDF0B5059F0024D21B2546BC420AD0D2
:1014D00031F81460354433F81460AD1B20F8145013
:1014E0002D140134F2E764000319023C214416462E
:1014F0001F463EB131F8024F254427F8025B013EFA
:101500002D14F6E703EB4202023A8242134603D35C
:101510001988023A0029F8D00233181A4010F0BD99
:10152000023981420B4603D31A880239002AF8D0C7
:101530000233181A401070472DE9F0439E4608AB5D
:1015400093E84801079C571E02398446C2EB040900
:101550007C1C21D031F8024F04F57F4509EB0704CC
:10156000A74205F1FF052E4423BFBEF8005005F544
:101570007F44FF344FF6FF74444486EA040513FAAF
:1015800085F32CF8023B28BF0EF1020E4FEA1448F7
:10159000360C1B0C013FDBE700EB420113B120F8D6
:1015A00012300231BDE8F043FFF7BABF10B5044670
:1015B00038B18068FEF7A0FD2046BDE81040FEF778
:1015C0009BBD10BD38B50446806801298CBF0D460F
:1015D000022518B12368B5EB930F07D96900FEF710
:1015E0007CFD2368A06065F39F03236038BD38B598
:1015F00005460C20FEF748FD2A78037862F30003C5
:101600006FF341030370044628682368C0F39D000C
:1016100060F39F0323606B686360AB680BB9A360E2
:101620000AE04000FEF730FDA0602A68A968C2F316
:101630009D0252001AF063FB204638BD10B54B00E6
:1016400018441A4449B130F8023D32F8024D1B1BD0
:10165000002B04DB06D10139F4E7084610BD4FF03A
:10166000FF3010BD012010BD38B505460C460221E3
:10167000FFF7A8FF2B78002CB5BF43F001036FF3F1
:1016800000032B702B704FF00003B4BF6142214662
:101690006B6039B16B68AA68581C686022F8131037
:1016A000090CF6E738BD037803F0FE036FF341033E
:1016B000037003686FF39F0303600023436083603C
:1016C000704728B103789B0702D48068FEF714BDE9
:1016D000704738B505460C464968FFF773FF227816
:1016E0002B78A86862F300032B7063686B606268F4
:1016F000A1685200BDE838401AF001BB034609B9A1
:1017000059607047FFF7B0BF08B5FFF7CCFFBDE8E1
:101710000840FFF7F3BF30B40578816005F0FE059F
:1017200045F002050570056862F39F05002205601B
:101730004260194630BCFFF7E1BFF8B504469DF89A
:10174000185004211F461646FFF73CFF237855B179
:10175000002E77F1000206DA43F001037242237093
:1017600067EB470304E06FF30003237032463B4608
:101770000021616052EA03010CD06168A0684D1C31
:10178000656020F81120110C41EA0341180C0A464B
:101790000346EFE7F8BD2DE9F04110EE106A03783B
:1017A000F20F62F300030370C6F30F4313F4FF4319
:1017B000074603D100237B60BDE8F081B3F5FF4FFE
:1017C000F8D0C6F3C753A3F17F05002DF2DB04D197
:1017D0000121BDE8F041FFF747BF162DC6F31606FD
:1017E000D8BFC5F1170546F40006DCBFEE40002562
:1017F000A3F16F084FF01004C8BF093598FBF4F847
:10180000D8BF2C464146C2BF963B05F00F0593FB5F
:10181000F4F4FFF7D7FEC7F8048024B1620000217A
:10182000B8681AF0ACFA45B1BB6806FA05F2C5F122
:10183000100523F81420EE40013464004FEA4808F4
:10184000444504D0BB681E53360C0234F8E7BDE8AB
:10185000F0812DE9F8438F1804460D46C2F35B0171
:1018600098460131089EFFF7ADFE2278B8F1000FCF
:1018700002D042F0010201E068F30002002322706E
:1018800063602846B1B2B84230D20278A2F1300388
:10189000092B00F1010E0CD9A2F14103192B02D83A
:1018A000A2F1370305E0A2F16103192B1ED8A2F1C2
:1018B0005703B3421AD2A068D4F804C09BB2624660
:1018C000804642B1B8F8009009FB013328F8023B8A
:1018D000013A1B0CF5E700EB4C0213B120F81C3069
:1018E0000232121A521062607046CCE7401BBDE80B
:1018F000F8834068B0FA80F0400970470A464168B2
:1019000038B509B95368C3B11378047803F00103FB
:1019100004F001055B1B10D15368994205D307D829
:1019200092688068FFF78AFE03E04FF0FF3000E026
:101930000120E30702D5404238BD184638BD884231
:1019400010B5044601D0FFF7C4FE23786FF30003FF
:10195000237010BD884210B5044601D0FFF7B9FED0
:101960002378C3F30002C2F1010262F30003237083
:1019700010BD88421FB5044601D0FFF7AAFE626879
:1019800042B901212046FFF71DFEA2680123138002
:10199000636021E02378D9070ED56FF30003A168B7
:1019A00023700123ADF80E30009308460DF10E03AD
:1019B000FFF787FD606013E0511C2046FFF702FE31
:1019C000A16862680123ADF80E30009308460DF15E
:1019D0000E03FFF74BFD6060237843F00103237093
:1019E00004B010BD2DE9F0470F464968064614467D
:1019F00001B12AB939463046BDE8F047FFF769BE64
:101A000002F10F052D092944FFF7DCFD7968B36861
:101A1000B86805EB010814F00F0208F1004404F166
:101A2000FF3401F1004E6FF0010C4FEA44040EF157
:101A3000FF3E0CFB01FC0CEB4E0E08BF10222344B2
:101A400070449A464FF0000EC2F1100259B130F8BE
:101A5000119049EA0E0929FA02FE2AF802E9013931
:101A60004FEA094EF2E72EFA02FE03EB0C0923F8C7
:101A70000CE06B00C3F1020305F100429944013A06
:101A8000520048461AF07BF902344C44B8F1000F7A
:101A900005D034F8023D13B908F1FF38F6E7C6F86F
:101AA00004803A78337862F300033370BDE8F0873E
:101AB000F0B50E46496885B00546144601B122B915
:101AC00031462846FFF705FE45E0FFF77BFD23463C
:101AD0007268B168A868FFF7ACFC686031782B7851
:101AE00061F300032B70DB07024634D500237768CF
:101AF000ADF80E302109BB4212D08B4210D0B06835
:101B000030F8130050B10123B942ADF80E3009D3BB
:101B10000123A968C2B90B806B601CE00133EAE7BE
:101B2000B94218D2B36804F00F0433F8111001233E
:101B300003FA04F4013C214218BFADF80E30BDF8A1
:101B40000E30002BE4D106E0009308460DF10E03A1
:101B5000FFF78CFC686005B0F0BD73B553680C46A8
:101B6000496899420646154606D308D89268A06887
:101B7000FFF764FD002802DA23462C461D46227832
:101B80002B7861685340DB070CD430460131FFF7F6
:101B900019FD6B680093AB686268A168B068FFF7D5
:101BA00065FC0AE03046FFF70DFD6B680093AB68FB
:101BB0006268A168B068FFF784FC706022783378AF
:101BC00062F30003337002B070BDF7B553680C4682
:101BD000496899420646154606D30AD89268A06815
:101BE000FFF72CFD002804DA234601272C461D466A
:101BF00000E0002722782B7861685340DB070CD582
:101C000030460131FFF7DEFC6B680093AB68626819
:101C1000A168B068FFF72AFC0AE03046FFF7D2FC63
:101C20006B680093AB686268A168B068FFF749FC15
:101C30007060227833781FB1C2F30002C2F1010252
:101C400062F30003337003B0F0BD2DE9F04F164688
:101C50004A6873689A420C463EBF34460B461E469D
:101C600023780546D80785B022D4337813F00107CE
:101C70001ED161682846FFF7A5FCA868A468D6F8BD
:101C800008E071683B46994208D034F813603EF88A
:101C90001320324020F813200133F4E700EB410118
:101CA000FFF73EFC2B7868606FF300032B7068E051
:101CB000616828460131FFF785FCAB6800933278F4
:101CC0002378D4F804E0A1687068D6F80890DDF8AD
:101CD00000B083EA020707F0010787F001075FFA07
:101CE00087F87F42BFB203F0010302F001020297BE
:101CF0005F42BFB2C2F1000CA1F1020ACEEB0001BB
:101D000001971FFA8CFC0EF1FF370391791C20D04C
:101D10003AF8021F019841400B4403990298394454
:101D20008F422ABFB9F8001061468CEA01010A44CB
:101D300003EA020181EA000118FA81F128BF09F1E2
:101D400002092BF8021B120C1B0C4FEA1148013F31
:101D5000DCE7009B03EB4E01B8F1000F04D0009AC2
:101D6000012322F81E3002310098FFF7D9FB68608A
:101D700033782278C3F3000313402A7863F3000218
:101D80002A7005B0BDE8F08F2DE9F84F17464A6874
:101D90007B689A420C463EBF3C460B461F46237862
:101DA000DB07064633D43B7813F001052FD1616879
:101DB000FFF708FC62687B68D6F808E0D4F808C032
:101DC000D7F80880D01A2A46934208D03CF812402F
:101DD00038F8121021432EF812100132F4E75B009C
:101DE0000EEB0302023B63440146144629B133F86B
:101DF000025F24F8025B0139F8E702EB4002CEEB08
:101E0000020233785210726061F300034EE06168A1
:101E100030460131FFF7D6FB21783D78D4F804E055
:101E2000D7F80490B068A468D7F8088001F00101E1
:101E300005F00105C1F1000C6F421FFA8CFCBFB226
:101E40000EF1FF32023C82460123CEEB0909B2F1CA
:101E5000FF3F1ED034F802BF8BEA0C0B594409EB4C
:101E6000020B5A452ABFB8F800B0BB4687EA0B0BF5
:101E70005D4441EA050B6FEA0B0B13FA8BF32AF86A
:101E8000023B28BF08F102082D0C090C1B0C013A7B
:101E9000DDE700EB4E011BB1012320F81E300231BB
:101EA000FFF73EFB3378706043F001033370BDE809
:101EB000F88FF0B516464A6873689A4238BF0B46E9
:101EC0000C463CBF34461E462778337861685F4035
