:100000000A128A11B82E00308A000408840A820776
:100010000034C034F934A434B03499349234823486
:06002000F8348034903436
:100D700083010A128A11BC2E0530AE01AF01AC000E
:100D8000AD010A128A11FA260A128A111F151F19BB
:100D9000C72E83161E088312AE070318AF0AFF3052
:100DA000AC07031CAD032D08803AFF0080307F02A2
:100DB000031DDC2E01302C020318C12E0530F60075
:100DC000F701831203132F08F9002E08F8000A1206
:100DD0008A11B3270A128A117708AF007608AE008D
:100DE0002F08A1002E08A0000A128A1109270A1252
:100DF0008A11BC2EFF308312031385008800013056
:100E00008316850088018E309F00413083129F0039
:100E1000A62F2108AB002008AA006430F600F701D5
:100E20002B08F9002A08F800B3270A128A1177085C
:100E3000A3007608A2000A30F600F701F8270A128C
:100E40008A1169270A128A117108F9007008F800DE
:100E5000B3270A128A117708A5007608A400F8279C
:100E60000A128A1169270A128A117108A9007008EA
:100E7000A8000A30F000F1012908F3002808F20068
:100E800069277108A7007008A6002208013E8400A7
:100E90000A128A1103200A128A118800373085004D
:100EA000A6272408013E84000A128A1103200A1290
:100EB0008A1188002F308500A6272608013E84006D
:100EC0000A128A1103200A128A1188001F30850035
:100ED000A62FF501F31F732FF209F309F20A031984
:100EE000F30AF501F50AF11F7A2FF009F109F00A6A
:100EF0000319F10A710870040319992FF401F40A17
:100F0000F11B862F0310F00DF10D7F2F7108730276
:100F1000031D8C2F70087202031C952F7008F202BB
:100F20007108031CF303F3020310F10CF00CF40B33
:100F3000862F75080319A12FF209F309F20A031984
:100F4000F30A7308F1007208F00008000130F001A4
:100F5000F100FF30F007031CF103700A0319710A56
:100F600003190800A92FFB01F71FBD2FF609F70988
:100F7000F60A0319F70AFB01FB0AF91FC62FF80945
:100F8000F909F80A0319F90A0130FB06FC01FD0111
:100F9000770876040319EB2FFA01FA0AF71BD42F0E
:100FA0000310F60DF70DCD2F0310FC0DFD0D770886
:100FB0007902031DDD2F76087802031CE72F7608DF
:100FC000F8027708031CF903F9027C140310F70CEC
:100FD000F60CFA0BD42F7B080319F32FFC09FD093B
:100FE000FC0A0319FD0A7D08F7007C08F6000800DA
:100FF0002B08F3002A08F2006430F000F101080029
:02400E00321866
:00000001FF
